{
  "abi": [
    {
      "inputs": [],
      "name": "SubmissionFeeNotPaid",
      "type": "error"
    },
    {
      "inputs": [],
      "name": "SubmissionsClosed",
      "type": "error"
    },
    {
      "anonymous": false,
      "inputs": [
        {
          "indexed": true,
          "internalType": "uint256",
          "name": "publicationId",
          "type": "uint256"
        },
        {
          "indexed": true,
          "internalType": "uint256",
          "name": "issueId",
          "type": "uint256"
        }
      ],
      "name": "NewIssue",
      "type": "event"
    },
    {
      "anonymous": false,
      "inputs": [
        {
          "indexed": true,
          "internalType": "uint256",
          "name": "publicationId",
          "type": "uint256"
        },
        {
          "indexed": false,
          "internalType": "string",
          "name": "title",
          "type": "string"
        }
      ],
      "name": "NewPublication",
      "type": "event"
    },
    {
      "anonymous": false,
      "inputs": [
        {
          "indexed": true,
          "internalType": "uint256",
          "name": "publicationId",
          "type": "uint256"
        },
        {
          "indexed": true,
          "internalType": "uint256",
          "name": "issueId",
          "type": "uint256"
        },
        {
          "indexed": true,
          "internalType": "uint256",
          "name": "submissionId",
          "type": "uint256"
        },
        {
          "indexed": false,
          "internalType": "string",
          "name": "content",
          "type": "string"
        }
      ],
      "name": "NewSubmission",
      "type": "event"
    },
    {
      "anonymous": false,
      "inputs": [
        {
          "indexed": true,
          "internalType": "address",
          "name": "previousOwner",
          "type": "address"
        },
        {
          "indexed": true,
          "internalType": "address",
          "name": "newOwner",
          "type": "address"
        }
      ],
      "name": "OwnershipTransferred",
      "type": "event"
    },
    {
      "inputs": [
        {
          "internalType": "uint256",
          "name": "_publicationId",
          "type": "uint256"
        },
        {
          "internalType": "uint256",
          "name": "_issueId",
          "type": "uint256"
        }
      ],
      "name": "collectedSubmissionFees",
      "outputs": [
        {
          "internalType": "uint256",
          "name": "",
          "type": "uint256"
        }
      ],
      "stateMutability": "view",
      "type": "function"
    },
    {
      "inputs": [
        {
          "internalType": "uint256",
          "name": "_publicationId",
          "type": "uint256"
        },
        {
          "internalType": "uint256",
          "name": "_submissionsOpenBlock",
          "type": "uint256"
        },
        {
          "internalType": "uint256",
          "name": "_submissionsCloseBlock",
          "type": "uint256"
        },
        {
          "internalType": "uint256",
          "name": "_submissionFee",
          "type": "uint256"
        }
      ],
      "name": "createIssue",
      "outputs": [],
      "stateMutability": "nonpayable",
      "type": "function"
    },
    {
      "inputs": [
        {
          "internalType": "string",
          "name": "name",
          "type": "string"
        }
      ],
      "name": "createPublication",
      "outputs": [],
      "stateMutability": "nonpayable",
      "type": "function"
    },
    {
      "inputs": [
        {
          "internalType": "uint256",
          "name": "_publicationId",
          "type": "uint256"
        },
        {
          "internalType": "uint256",
          "name": "_issueId",
          "type": "uint256"
        },
        {
          "internalType": "string",
          "name": "content",
          "type": "string"
        }
      ],
      "name": "createSubmission",
      "outputs": [],
      "stateMutability": "payable",
      "type": "function"
    },
    {
      "inputs": [
        {
          "internalType": "uint256",
          "name": "_publicationId",
          "type": "uint256"
        },
        {
          "internalType": "uint256",
          "name": "_issueId",
          "type": "uint256"
        }
      ],
      "name": "distributedSubmissionFees",
      "outputs": [
        {
          "internalType": "uint256",
          "name": "",
          "type": "uint256"
        }
      ],
      "stateMutability": "view",
      "type": "function"
    },
    {
      "inputs": [],
      "name": "owner",
      "outputs": [
        {
          "internalType": "address",
          "name": "",
          "type": "address"
        }
      ],
      "stateMutability": "view",
      "type": "function"
    },
    {
      "inputs": [],
      "name": "renounceOwnership",
      "outputs": [],
      "stateMutability": "nonpayable",
      "type": "function"
    },
    {
      "inputs": [
        {
          "internalType": "uint256",
          "name": "_publicationId",
          "type": "uint256"
        },
        {
          "internalType": "uint256",
          "name": "_issueId",
          "type": "uint256"
        }
      ],
      "name": "submissionFee",
      "outputs": [
        {
          "internalType": "uint256",
          "name": "",
          "type": "uint256"
        }
      ],
      "stateMutability": "view",
      "type": "function"
    },
    {
      "inputs": [
        {
          "internalType": "uint256",
          "name": "_publicationId",
          "type": "uint256"
        },
        {
          "internalType": "uint256",
          "name": "_issueId",
          "type": "uint256"
        }
      ],
      "name": "submissionsCount",
      "outputs": [
        {
          "internalType": "uint256",
          "name": "",
          "type": "uint256"
        }
      ],
      "stateMutability": "view",
      "type": "function"
    },
    {
      "inputs": [
        {
          "internalType": "address",
          "name": "newOwner",
          "type": "address"
        }
      ],
      "name": "transferOwnership",
      "outputs": [],
      "stateMutability": "nonpayable",
      "type": "function"
    }
  ],
  "bytecode": {
    "object": "0x6080604052600060015534801561001557600080fd5b5061001f33610024565b610074565b600080546001600160a01b038381166001600160a01b0319831681178455604051919092169283917f8be0079c531659141344cd1fd0a4f28419497f9722a3daafe3b4186f6b6457e09190a35050565b61080e806100836000396000f3fe6080604052600436106100915760003560e01c80639e79c104116100595780639e79c10414610177578063aab96d7f146101b5578063ab31a033146101d5578063f2fde38b146101f5578063f37a8f1c1461021557600080fd5b806323ec26d7146100965780633daf84bb146100ab578063715018a6146100fc57806388d9c89f146101115780638da5cb5b1461014f575b600080fd5b6100a96100a4366004610612565b610253565b005b3480156100b757600080fd5b506100e96100c6366004610665565b600091825260026020818152604080852093855292909101905290206004015490565b6040519081526020015b60405180910390f35b34801561010857600080fd5b506100a9610364565b34801561011d57600080fd5b506100e961012c366004610665565b600091825260026020818152604080852093855292909101905290206006015490565b34801561015b57600080fd5b506000546040516001600160a01b0390911681526020016100f3565b34801561018357600080fd5b506100e9610192366004610665565b600091825260026020818152604080852093855292909101905290206005015490565b3480156101c157600080fd5b506100a96101d0366004610687565b6103a3565b3480156101e157600080fd5b506100a96101f03660046106b9565b610464565b34801561020157600080fd5b506100a96102103660046106fb565b6104de565b34801561022157600080fd5b506100e9610230366004610665565b600091825260026020818152604080852093855292909101905290206003015490565b600084815260026020818152604080842087855292830190915290912060018101544310806102855750806002015443115b156102a3576040516307be465960e41b815260040160405180910390fd5b806003015434146102c757604051631750423b60e01b815260040160405180910390fd5b600681018054600091826102da83610741565b909155506000818152600784016020526040812080546001600160a01b03191633178155600485018054939450909234929061031790849061075c565b925050819055508187897fd1014531c81681bec67778100b563c200d496725d19b73064fe586df20fc48f08989604051610352929190610774565b60405180910390a45050505050505050565b6000546001600160a01b031633146103975760405162461bcd60e51b815260040161038e906107a3565b60405180910390fd5b6103a16000610579565b565b6000546001600160a01b031633146103cd5760405162461bcd60e51b815260040161038e906107a3565b600084815260026020526040902080546001600160a01b031633146103f157600080fd5b6001810180546000918261040483610741565b90915550600081815260028085016020526040808320600181018a9055918201889055600382018790555192935091839189917fda30336bda9904dd16dd2e9f390674e3f7d4fba37e85c71f1908fed8142b91549190a350505050505050565b600180546000918261047583610741565b909155506000818152600260205260409081902080546001600160a01b0319163317815590519192509082907f862efd97586c7c2d9179befe2a00eb2ea7e5b782392b97bdd6fb002f876f4718906104d09087908790610774565b60405180910390a250505050565b6000546001600160a01b031633146105085760405162461bcd60e51b815260040161038e906107a3565b6001600160a01b03811661056d5760405162461bcd60e51b815260206004820152602660248201527f4f776e61626c653a206e6577206f776e657220697320746865207a65726f206160448201526564647265737360d01b606482015260840161038e565b61057681610579565b50565b600080546001600160a01b038381166001600160a01b0319831681178455604051919092169283917f8be0079c531659141344cd1fd0a4f28419497f9722a3daafe3b4186f6b6457e09190a35050565b60008083601f8401126105db57600080fd5b50813567ffffffffffffffff8111156105f357600080fd5b60208301915083602082850101111561060b57600080fd5b9250929050565b6000806000806060858703121561062857600080fd5b8435935060208501359250604085013567ffffffffffffffff81111561064d57600080fd5b610659878288016105c9565b95989497509550505050565b6000806040838503121561067857600080fd5b50508035926020909101359150565b6000806000806080858703121561069d57600080fd5b5050823594602084013594506040840135936060013592509050565b600080602083850312156106cc57600080fd5b823567ffffffffffffffff8111156106e357600080fd5b6106ef858286016105c9565b90969095509350505050565b60006020828403121561070d57600080fd5b81356001600160a01b038116811461072457600080fd5b9392505050565b634e487b7160e01b600052601160045260246000fd5b60006000198214156107555761075561072b565b5060010190565b6000821982111561076f5761076f61072b565b500190565b60208152816020820152818360408301376000818301604090810191909152601f909201601f19160101919050565b6020808252818101527f4f776e61626c653a2063616c6c6572206973206e6f7420746865206f776e657260408201526060019056fea264697066735822122020e82c9d085f4907d3bbb0c8e7205d8013cc72db007aa9d5f67ad7b6faad648564736f6c634300080a0033",
    "linkReferences": {}
  },
  "methodIdentifiers": {
    "collectedSubmissionFees(uint256,uint256)": "3daf84bb",
    "createIssue(uint256,uint256,uint256,uint256)": "aab96d7f",
    "createPublication(string)": "ab31a033",
    "createSubmission(uint256,uint256,string)": "23ec26d7",
    "distributedSubmissionFees(uint256,uint256)": "9e79c104",
    "owner()": "8da5cb5b",
    "renounceOwnership()": "715018a6",
    "submissionFee(uint256,uint256)": "f37a8f1c",
    "submissionsCount(uint256,uint256)": "88d9c89f",
    "transferOwnership(address)": "f2fde38b"
  },
  "id": 4
}