{
  "abi": [
    {
      "inputs": [],
      "stateMutability": "nonpayable",
      "type": "constructor"
    },
    {
      "inputs": [
        {
          "internalType": "uint256",
          "name": "submissionId",
          "type": "uint256"
        }
      ],
      "name": "InvalidSubmissionId",
      "type": "error"
    },
    {
      "inputs": [],
      "name": "IssueAlreadyPublished",
      "type": "error"
    },
    {
      "inputs": [],
      "name": "PermissionDenied",
      "type": "error"
    },
    {
      "inputs": [],
      "name": "SubmissionFeeNotPaid",
      "type": "error"
    },
    {
      "inputs": [],
      "name": "SubmissionsClosed",
      "type": "error"
    },
    {
      "anonymous": false,
      "inputs": [
        {
          "indexed": true,
          "internalType": "uint256",
          "name": "issueId",
          "type": "uint256"
        },
        {
          "indexed": false,
          "internalType": "uint256[]",
          "name": "_submissionIds",
          "type": "uint256[]"
        },
        {
          "indexed": false,
          "internalType": "string",
          "name": "data",
          "type": "string"
        }
      ],
      "name": "IssuePublished",
      "type": "event"
    },
    {
      "anonymous": false,
      "inputs": [
        {
          "indexed": false,
          "internalType": "uint256",
          "name": "issueId",
          "type": "uint256"
        }
      ],
      "name": "NewIssue",
      "type": "event"
    },
    {
      "anonymous": false,
      "inputs": [
        {
          "indexed": false,
          "internalType": "string",
          "name": "title",
          "type": "string"
        }
      ],
      "name": "NewPublication",
      "type": "event"
    },
    {
      "anonymous": false,
      "inputs": [
        {
          "indexed": true,
          "internalType": "uint256",
          "name": "issueId",
          "type": "uint256"
        },
        {
          "indexed": false,
          "internalType": "uint256",
          "name": "submissionId",
          "type": "uint256"
        },
        {
          "indexed": false,
          "internalType": "string",
          "name": "content",
          "type": "string"
        }
      ],
      "name": "NewSubmission",
      "type": "event"
    },
    {
      "anonymous": false,
      "inputs": [
        {
          "indexed": true,
          "internalType": "address",
          "name": "previousOwner",
          "type": "address"
        },
        {
          "indexed": true,
          "internalType": "address",
          "name": "newOwner",
          "type": "address"
        }
      ],
      "name": "OwnershipTransferred",
      "type": "event"
    },
    {
      "anonymous": false,
      "inputs": [
        {
          "indexed": true,
          "internalType": "bytes32",
          "name": "role",
          "type": "bytes32"
        },
        {
          "indexed": true,
          "internalType": "bytes32",
          "name": "previousAdminRole",
          "type": "bytes32"
        },
        {
          "indexed": true,
          "internalType": "bytes32",
          "name": "newAdminRole",
          "type": "bytes32"
        }
      ],
      "name": "RoleAdminChanged",
      "type": "event"
    },
    {
      "anonymous": false,
      "inputs": [
        {
          "indexed": true,
          "internalType": "bytes32",
          "name": "role",
          "type": "bytes32"
        },
        {
          "indexed": true,
          "internalType": "address",
          "name": "account",
          "type": "address"
        },
        {
          "indexed": true,
          "internalType": "address",
          "name": "sender",
          "type": "address"
        }
      ],
      "name": "RoleGranted",
      "type": "event"
    },
    {
      "anonymous": false,
      "inputs": [
        {
          "indexed": true,
          "internalType": "bytes32",
          "name": "role",
          "type": "bytes32"
        },
        {
          "indexed": true,
          "internalType": "address",
          "name": "account",
          "type": "address"
        },
        {
          "indexed": true,
          "internalType": "address",
          "name": "sender",
          "type": "address"
        }
      ],
      "name": "RoleRevoked",
      "type": "event"
    },
    {
      "inputs": [],
      "name": "DEFAULT_ADMIN_ROLE",
      "outputs": [
        {
          "internalType": "bytes32",
          "name": "",
          "type": "bytes32"
        }
      ],
      "stateMutability": "view",
      "type": "function"
    },
    {
      "inputs": [],
      "name": "PUBLISHER_ROLE",
      "outputs": [
        {
          "internalType": "bytes32",
          "name": "",
          "type": "bytes32"
        }
      ],
      "stateMutability": "view",
      "type": "function"
    },
    {
      "inputs": [
        {
          "internalType": "uint256",
          "name": "_submissionsOpenAt",
          "type": "uint256"
        },
        {
          "internalType": "uint256",
          "name": "_submissionsCloseAt",
          "type": "uint256"
        },
        {
          "internalType": "uint256",
          "name": "_submissionFee",
          "type": "uint256"
        }
      ],
      "name": "createIssue",
      "outputs": [],
      "stateMutability": "nonpayable",
      "type": "function"
    },
    {
      "inputs": [
        {
          "internalType": "uint256",
          "name": "_issueId",
          "type": "uint256"
        },
        {
          "internalType": "string",
          "name": "content",
          "type": "string"
        }
      ],
      "name": "createSubmission",
      "outputs": [],
      "stateMutability": "payable",
      "type": "function"
    },
    {
      "inputs": [
        {
          "internalType": "bytes32",
          "name": "role",
          "type": "bytes32"
        }
      ],
      "name": "getRoleAdmin",
      "outputs": [
        {
          "internalType": "bytes32",
          "name": "",
          "type": "bytes32"
        }
      ],
      "stateMutability": "view",
      "type": "function"
    },
    {
      "inputs": [
        {
          "internalType": "bytes32",
          "name": "role",
          "type": "bytes32"
        },
        {
          "internalType": "address",
          "name": "account",
          "type": "address"
        }
      ],
      "name": "grantRole",
      "outputs": [],
      "stateMutability": "nonpayable",
      "type": "function"
    },
    {
      "inputs": [
        {
          "internalType": "bytes32",
          "name": "role",
          "type": "bytes32"
        },
        {
          "internalType": "address",
          "name": "account",
          "type": "address"
        }
      ],
      "name": "hasRole",
      "outputs": [
        {
          "internalType": "bool",
          "name": "",
          "type": "bool"
        }
      ],
      "stateMutability": "view",
      "type": "function"
    },
    {
      "inputs": [
        {
          "internalType": "uint256",
          "name": "_issueId",
          "type": "uint256"
        }
      ],
      "name": "issueRewards",
      "outputs": [
        {
          "internalType": "uint256",
          "name": "",
          "type": "uint256"
        }
      ],
      "stateMutability": "view",
      "type": "function"
    },
    {
      "inputs": [],
      "name": "owner",
      "outputs": [
        {
          "internalType": "address",
          "name": "",
          "type": "address"
        }
      ],
      "stateMutability": "view",
      "type": "function"
    },
    {
      "inputs": [
        {
          "internalType": "uint256",
          "name": "_issueId",
          "type": "uint256"
        },
        {
          "internalType": "uint256[]",
          "name": "_submissionIds",
          "type": "uint256[]"
        },
        {
          "internalType": "string",
          "name": "data",
          "type": "string"
        }
      ],
      "name": "publishIssue",
      "outputs": [],
      "stateMutability": "nonpayable",
      "type": "function"
    },
    {
      "inputs": [],
      "name": "renounceOwnership",
      "outputs": [],
      "stateMutability": "nonpayable",
      "type": "function"
    },
    {
      "inputs": [
        {
          "internalType": "bytes32",
          "name": "role",
          "type": "bytes32"
        },
        {
          "internalType": "address",
          "name": "account",
          "type": "address"
        }
      ],
      "name": "renounceRole",
      "outputs": [],
      "stateMutability": "nonpayable",
      "type": "function"
    },
    {
      "inputs": [
        {
          "internalType": "bytes32",
          "name": "role",
          "type": "bytes32"
        },
        {
          "internalType": "address",
          "name": "account",
          "type": "address"
        }
      ],
      "name": "revokeRole",
      "outputs": [],
      "stateMutability": "nonpayable",
      "type": "function"
    },
    {
      "inputs": [
        {
          "internalType": "uint256",
          "name": "_issueId",
          "type": "uint256"
        }
      ],
      "name": "submissionFee",
      "outputs": [
        {
          "internalType": "uint256",
          "name": "",
          "type": "uint256"
        }
      ],
      "stateMutability": "view",
      "type": "function"
    },
    {
      "inputs": [
        {
          "internalType": "uint256",
          "name": "_issueId",
          "type": "uint256"
        }
      ],
      "name": "submissionsCount",
      "outputs": [
        {
          "internalType": "uint256",
          "name": "",
          "type": "uint256"
        }
      ],
      "stateMutability": "view",
      "type": "function"
    },
    {
      "inputs": [
        {
          "internalType": "bytes4",
          "name": "interfaceId",
          "type": "bytes4"
        }
      ],
      "name": "supportsInterface",
      "outputs": [
        {
          "internalType": "bool",
          "name": "",
          "type": "bool"
        }
      ],
      "stateMutability": "view",
      "type": "function"
    },
    {
      "inputs": [
        {
          "internalType": "address",
          "name": "newOwner",
          "type": "address"
        }
      ],
      "name": "transferOwnership",
      "outputs": [],
      "stateMutability": "nonpayable",
      "type": "function"
    }
  ],
  "bytecode": {
    "object": "0x608060405234801561001057600080fd5b5061001a33610054565b6100256000336100a4565b61004f7f0ac90c257048ef1c3e387c26d4a99bde06894efbcbff862dc1885c3a9319308a336100a4565b610139565b600080546001600160a01b038381166001600160a01b0319831681178455604051919092169283917f8be0079c531659141344cd1fd0a4f28419497f9722a3daafe3b4186f6b6457e09190a35050565b6100ae82826100b2565b5050565b60008281526001602090815260408083206001600160a01b038516845290915290205460ff166100ae5760008281526001602081815260408084206001600160a01b0386168086529252808420805460ff19169093179092559051339285917f2f8788117e7eff1d82e926ec794901d17c78024a50270940304540a733656f0d9190a45050565b61107e806101486000396000f3fe6080604052600436106100fe5760003560e01c8063a1d9687411610095578063b3f7c3aa11610064578063b3f7c3aa146102bf578063d547741f146102ef578063d6ee20a31461030f578063d8f4b6fd1461032f578063f2fde38b1461036357600080fd5b8063a1d9687414610236578063a217fddf14610267578063a5e99c4e1461027c578063a85e70b61461028f57600080fd5b806336568abe116100d157806336568abe146101b9578063715018a6146101d95780638da5cb5b146101ee57806391d148541461021657600080fd5b806301ffc9a7146101035780630b121c0414610138578063248a9ca31461015a5780632f2ff15d14610199575b600080fd5b34801561010f57600080fd5b5061012361011e366004610beb565b610383565b60405190151581526020015b60405180910390f35b34801561014457600080fd5b50610158610153366004610c15565b6103ba565b005b34801561016657600080fd5b5061018b610175366004610c41565b6000908152600160208190526040909120015490565b60405190815260200161012f565b3480156101a557600080fd5b506101586101b4366004610c76565b610457565b3480156101c557600080fd5b506101586101d4366004610c76565b610482565b3480156101e557600080fd5b50610158610505565b3480156101fa57600080fd5b506000546040516001600160a01b03909116815260200161012f565b34801561022257600080fd5b50610123610231366004610c76565b610519565b34801561024257600080fd5b5061018b610251366004610c41565b6000908152600360208190526040909120015490565b34801561027357600080fd5b5061018b600081565b61015861028a366004610ceb565b610544565b34801561029b57600080fd5b5061018b6102aa366004610c41565b60009081526003602052604090206004015490565b3480156102cb57600080fd5b5061018b6102da366004610c41565b60009081526003602052604090206005015490565b3480156102fb57600080fd5b5061015861030a366004610c76565b610641565b34801561031b57600080fd5b5061015861032a366004610d37565b610667565b34801561033b57600080fd5b5061018b7f0ac90c257048ef1c3e387c26d4a99bde06894efbcbff862dc1885c3a9319308a81565b34801561036f57600080fd5b5061015861037e366004610de2565b6107de565b60006001600160e01b03198216637965db0b60e01b14806103b457506301ffc9a760e01b6001600160e01b03198316145b92915050565b7f0ac90c257048ef1c3e387c26d4a99bde06894efbcbff862dc1885c3a9319308a6103e481610857565b60028054600091826103f583610e13565b90915550600081815260036020818152604092839020898155600181018990559182018790559151838152929350917fd6c8c47cbde9e0fbcc0dd26a3e80796f7ded512dca92c1caf8044fb8eee1da61910160405180910390a1505050505050565b6000828152600160208190526040909120015461047381610857565b61047d8383610861565b505050565b6001600160a01b03811633146104f75760405162461bcd60e51b815260206004820152602f60248201527f416363657373436f6e74726f6c3a2063616e206f6e6c792072656e6f756e636560448201526e103937b632b9903337b91039b2b63360891b60648201526084015b60405180910390fd5b61050182826108cc565b5050565b61050d610933565b610517600061098d565b565b60009182526001602090815260408084206001600160a01b0393909316845291905290205460ff1690565b600083815260036020526040902080544310806105645750806001015443115b15610582576040516307be465960e41b815260040160405180910390fd5b806003015434146105a657604051631750423b60e01b815260040160405180910390fd5b600581018054600091826105b983610e13565b909155506000818152600684016020526040812080546001600160a01b0319163317815560048501805493945090923492906105f6908490610e2e565b92505081905550857febab0445a9a1b23479b6d6da1f3ce7aa502abdaf4ebcfbe3c94375ca5e9a375383878760405161063193929190610e6f565b60405180910390a2505050505050565b6000828152600160208190526040909120015461065d81610857565b61047d83836108cc565b7f0ac90c257048ef1c3e387c26d4a99bde06894efbcbff862dc1885c3a9319308a61069181610857565b60008681526003602052604090206002810154156106c257604051635630b19560e01b815260040160405180910390fd5b4260028201558460005b818110156107955760008360060160008a8a858181106106ee576106ee610e92565b6020908102929092013583525081019190915260400160002080549091506001600160a01b031661074e5788888381811061072b5761072b610e92565b9050602002013560405163024ada6f60e61b81526004016104ee91815260200190565b82846004015461075e9190610ea8565b81546001600160a01b031660009081526004602052604081208054909190610787908490610e2e565b9091555050506001016106cc565b50877fc2595796a2920a7d4956b6cc10c3c7608a2716ccaf0718ab29e1cdf147f2f5e4888888886040516107cc9493929190610eca565b60405180910390a25050505050505050565b6107e6610933565b6001600160a01b03811661084b5760405162461bcd60e51b815260206004820152602660248201527f4f776e61626c653a206e6577206f776e657220697320746865207a65726f206160448201526564647265737360d01b60648201526084016104ee565b6108548161098d565b50565b61085481336109dd565b61086b8282610519565b6105015760008281526001602081815260408084206001600160a01b0386168086529252808420805460ff19169093179092559051339285917f2f8788117e7eff1d82e926ec794901d17c78024a50270940304540a733656f0d9190a45050565b6108d68282610519565b156105015760008281526001602090815260408083206001600160a01b0385168085529252808320805460ff1916905551339285917ff6391f5c32d9c69d2a47ea670b442974b53935d1edc7fd64eb21e047a839171b9190a45050565b6000546001600160a01b031633146105175760405162461bcd60e51b815260206004820181905260248201527f4f776e61626c653a2063616c6c6572206973206e6f7420746865206f776e657260448201526064016104ee565b600080546001600160a01b038381166001600160a01b0319831681178455604051919092169283917f8be0079c531659141344cd1fd0a4f28419497f9722a3daafe3b4186f6b6457e09190a35050565b6109e78282610519565b610501576109f481610a36565b6109ff836020610a48565b604051602001610a10929190610f54565b60408051601f198184030181529082905262461bcd60e51b82526104ee91600401610fc9565b60606103b46001600160a01b03831660145b60606000610a57836002610ffc565b610a62906002610e2e565b67ffffffffffffffff811115610a7a57610a7a61101b565b6040519080825280601f01601f191660200182016040528015610aa4576020820181803683370190505b509050600360fc1b81600081518110610abf57610abf610e92565b60200101906001600160f81b031916908160001a905350600f60fb1b81600181518110610aee57610aee610e92565b60200101906001600160f81b031916908160001a9053506000610b12846002610ffc565b610b1d906001610e2e565b90505b6001811115610b95576f181899199a1a9b1b9c1cb0b131b232b360811b85600f1660108110610b5157610b51610e92565b1a60f81b828281518110610b6757610b67610e92565b60200101906001600160f81b031916908160001a90535060049490941c93610b8e81611031565b9050610b20565b508315610be45760405162461bcd60e51b815260206004820181905260248201527f537472696e67733a20686578206c656e67746820696e73756666696369656e7460448201526064016104ee565b9392505050565b600060208284031215610bfd57600080fd5b81356001600160e01b031981168114610be457600080fd5b600080600060608486031215610c2a57600080fd5b505081359360208301359350604090920135919050565b600060208284031215610c5357600080fd5b5035919050565b80356001600160a01b0381168114610c7157600080fd5b919050565b60008060408385031215610c8957600080fd5b82359150610c9960208401610c5a565b90509250929050565b60008083601f840112610cb457600080fd5b50813567ffffffffffffffff811115610ccc57600080fd5b602083019150836020828501011115610ce457600080fd5b9250929050565b600080600060408486031215610d0057600080fd5b83359250602084013567ffffffffffffffff811115610d1e57600080fd5b610d2a86828701610ca2565b9497909650939450505050565b600080600080600060608688031215610d4f57600080fd5b85359450602086013567ffffffffffffffff80821115610d6e57600080fd5b818801915088601f830112610d8257600080fd5b813581811115610d9157600080fd5b8960208260051b8501011115610da657600080fd5b602083019650809550506040880135915080821115610dc457600080fd5b50610dd188828901610ca2565b969995985093965092949392505050565b600060208284031215610df457600080fd5b610be482610c5a565b634e487b7160e01b600052601160045260246000fd5b6000600019821415610e2757610e27610dfd565b5060010190565b60008219821115610e4157610e41610dfd565b500190565b81835281816020850137506000828201602090810191909152601f909101601f19169091010190565b838152604060208201526000610e89604083018486610e46565b95945050505050565b634e487b7160e01b600052603260045260246000fd5b600082610ec557634e487b7160e01b600052601260045260246000fd5b500490565b6040808252810184905260006001600160fb1b03851115610eea57600080fd5b8460051b80876060850137808301905060608101600081526060848303016020850152610f18818688610e46565b98975050505050505050565b60005b83811015610f3f578181015183820152602001610f27565b83811115610f4e576000848401525b50505050565b7f416363657373436f6e74726f6c3a206163636f756e7420000000000000000000815260008351610f8c816017850160208801610f24565b7001034b99036b4b9b9b4b733903937b6329607d1b6017918401918201528351610fbd816028840160208801610f24565b01602801949350505050565b6020815260008251806020840152610fe8816040850160208701610f24565b601f01601f19169190910160400192915050565b600081600019048311821515161561101657611016610dfd565b500290565b634e487b7160e01b600052604160045260246000fd5b60008161104057611040610dfd565b50600019019056fea264697066735822122087a65d41e877c7fd3335eec6811756b939ae1fc4b50712448dca37f731a6482764736f6c634300080a0033",
    "linkReferences": {}
  },
  "methodIdentifiers": {
    "DEFAULT_ADMIN_ROLE()": "a217fddf",
    "PUBLISHER_ROLE()": "d8f4b6fd",
    "createIssue(uint256,uint256,uint256)": "0b121c04",
    "createSubmission(uint256,string)": "a5e99c4e",
    "getRoleAdmin(bytes32)": "248a9ca3",
    "grantRole(bytes32,address)": "2f2ff15d",
    "hasRole(bytes32,address)": "91d14854",
    "issueRewards(uint256)": "a85e70b6",
    "owner()": "8da5cb5b",
    "publishIssue(uint256,uint256[],string)": "d6ee20a3",
    "renounceOwnership()": "715018a6",
    "renounceRole(bytes32,address)": "36568abe",
    "revokeRole(bytes32,address)": "d547741f",
    "submissionFee(uint256)": "a1d96874",
    "submissionsCount(uint256)": "b3f7c3aa",
    "supportsInterface(bytes4)": "01ffc9a7",
    "transferOwnership(address)": "f2fde38b"
  },
  "id": 14
}